:02000002D0002C
:1040000000400D00E46A0D000000DE050C00030016
:084010000000000000000000A8
:04401800B4620D0081
:10401C0009480A49884208B505D0094A824202D0AB
:10402C00121A02F0FDF80748074A0021121A02F092
:10403C0002F9014808BD00BF705B0320546A0D00F3
:10404C00D85B0320D85B0320F0E7032070B501F0A8
:10405C0031F9074C074BE41AA40800251E46A5426B
:10406C0004D056F8253098470135F8E770BD00BFED
:10407C00486A0D000C6A0D0000F000B908B500F09C
:10408C00BFF9BDE8084001F0D7B800F0FBBB00F069
:10409C00F9BB00F0FFBB00F0FDBB0078B0FA80F07C
:1040AC0040097047012303707047000070B50C463F
:1040BC0006460021204600F070FF051E0CDD01F0C5
:1040CC001DFA064A01212B4601F02DF82A4606F16D
:1040DC001C01204600F018FD012070BDC8620D00C7
:1040EC0038B584690A4B036005467CB16368013BB3
:1040FC0063605BB9236820469B689847A368013BC3
:10410C00A3601BB923682046DB689847284638BD56
:10411C00E4680D0010B50446FFF7E2FF20461C21B1
:10412C0001F025FF204610BD30234371837101231C
:10413C0083600023C36083610371704737B500252A
:10414C00044680E8060005724572857241F6180037
:10415C00231D23502044FFF7E7FF44F6340304F5F6
:10416C009040E554383000F0B7FE04F5914004302F
:10417C0001F0F8FDFF2504F591402B462A460095E9
:10418C00E921203001F040F904F591402B462A46F4
:10419C00EA210095383001F037F904F591405030A0
:1041AC0001F0EEF8034A44F6EC032046E25003B06B
:1041BC0030BD00BF40420F0038B5044600F59140B9
:1041CC000430FFF78DFF44F63802064BA350A518B8
:1041DC0064332B61284600F074FC284600F09AFEEC
:1041EC00204638BDAC660D0038B544F6340300F5F6
:1041FC009044383400220546C25444F622612046CD
:10420C0000F011FC05F5914120463831BDE83840ED
:10421C0000F0FEBE00F5904100F5C05008B53831F5
:10422C001830FFF743FF30B901F068F90249BDE8D7
:10423C00084000F03BBF08BDDC620D0000F056B931
:10424C007047000008B501F059F90249BDE8084073
:10425C0000F03FBF54660D0070B545688668044693
:10426C00AE4205D0286808B1FFF713FF0C35F7E70D
:10427C00606808B1FFF70DFF204670BD08B500F06F
:10428C00F1FA01F03BF94FF4165101F02BF901F062
:10429C00BBF90B4901F0B4F901F0B6F9094B0A4925
:1042AC0044F20802985044F20C020848995044F227
:1042BC00100200219950BDE80840FFF795BF00BFE0
:1042CC0040420F00E0A4032051420D00EC5B0320A0
:1042DC002DE9F04F44F2080387B0C35800AF0446F1
:1042EC00002B00F0898000F58043083300F58045F1
:1042FC0000F580487B61043508F10C087B6918686F
:10430C0003681B699847002876DD7B691868036889
:10431C005B699847C0B2002862D1D8F80090B9F117
:10432C00000F05D104F5804310331B68002B54D0CB
:10433C002868C7F804D0C31D23F00703ADEB030DA9
:10434C00EE46002837D0631C00223B61134698428E
:10435C0032D93E69396916F803C00CEB030A504593
:10436C00194402D2BCF1010F25D1F9600EEB020108
:10437C00B9600133114601F1010AC2EB0A0B5FFA75
:10438C008BFBDC450AD9FE6816F8011FFE60BE687F
:10439C0006F8011B0133BE605146ECE7BCF1FF0F80
:1043AC0001D10A46D3E79842FBD04FF000020EF839
:1043BC0001205146F5E70022B9F1000F03D0114658
:1043CC007046C84707E004F5804310331B6813B1EF
:1043DC00714620469847D7F804D000232B6009E09B
:1043EC002B685A1CB2F5804F03D223442A605870B4
:1043FC0084E70123237081E71C37BD46BDE8F08FAD
:10440C0038B50E4D0E4C2B6813F0010F09D1284610
:10441C00FFF743FE28B100F099F820602846FFF71B
:10442C0041FE00F093F821682060411A0548FFF71F
:10443C00F1FE0548FFF74CFF38BD00BFF4E4032044
:10444C00DCA40320EC5B0320E0A40320F8B500F00F
:10445C004DF8174E174F184D184944F20403002419
:10446C00F45044F208033A46F45044F20C0330463C
:10447C00F45044F210033470F45001F073FD2C70BE
:10448C006C70AC706C60AC60EC600D4C0D493A46D5
:10449C00284601F067FD324629462046FFF74EFEBE
:1044AC003A4620460849BDE8F84001F05BBD00BF24
:1044BC00E0A40320D85B0320DC5B03204D420D00FD
:1044CC00EC5B032065420D00C5410D0008B5024BA5
:1044DC001B689B68019308BD6802030008B5024B7A
:1044EC001B68DB68019308BD6802030008B5024B2A
:1044FC001B681B68019308BD2C02030008B5024B16
:10450C001B685B69019308BD6C02030008B5024B84
:10451C001B689B69019308BD6C02030008B5024B34
:10452C001B685B6D019308BD6C02030008B5024B60
:10453C001B689B6D019308BD6C02030008B5024B10
:10454C001B685B68019308BD1802030008B5024B99
:10455C001B681B69019308BD1802030008B5024BC8
:10456C001B685B69019308BD1802030008B5024B78
:10457C001B689B68019308BD4802030008B5024BF9
:10458C001B681B69019308BD4802030008B5024B68
:10459C001B685B69019308BD4802030008B5024B18
:1045AC001B685B6C019308BD4802030008B5024B05
:1045BC001B689B6C019308BD4802030008B5024BB5
:1045CC001B685B69019308BD6402030008B5024BCC
:1045DC001B681B6A019308BD6402030008B5024BFB
:1045EC001B685B6A019308BD6402030008B5024BAB
:1045FC001B689B6A019308BD6402030008B5024B5B
:10460C001B681B68019308BD3C02030008B5024BF4
:10461C001B68DB68019308BD3C02030008B5024B24
:10462C001B681B69019308BD3C02030008B5024BD3
:10463C001B685B69019308BD3C02030008B5024B83
:10464C001B689B69019308BD3C02030008B5024B33
:10465C001B68DB69019308BD3C02030008B5024BE3
:10466C001B689B6A019308BD3C02030008B5024B12
:10467C001B68DB6A019308BD3C02030008B5024BC2
:10468C001B685B68019308BD3802030008B5024B38
:10469C001B689B69019308BD3802030008B5024BE7
:1046AC001B68DB69019308BD3802030008B5024B97
:1046BC001B681B6A019308BD3802030008B5024B46
:1046CC001B689B6A019308BD3802030008B5024BB6
:1046DC001B68DB6A019308BD3802030008B5024B66
:1046EC001B681B6B019308BD3802030008B5024B15
:1046FC001B685B6B019308BD3802030008B5024BC5
:10470C001B689B6B019308BD3802030008B5024B74
:10471C001B681B68019308BD4C02030008B5024BD3
:10472C001B685B68019308BD4C02030008B5024B83
:10473C001B681B69019308BD4C02030008B5024BB2
:10474C001B685B69019308BD4C02030008B5024B62
:10475C001B689B69019308BD4C02030008B5024B12
:10476C001B68DB69019308BD4C02030008B5024BC2
:10477C001B681B6A019308BD4C02030008B5024B71
:10478C001B681B6D019308BD6002030008B5024B4A
:10479C001B685B68019308BD2002030008B5034B3E
:1047AC001B68D3F88830019308BD00002002030079
:1047BC0008B5034B1B68D3F89430019308BD000077
:1047CC002002030008B5024B1B685B68019308BD0F
:1047DC004002030008B5024B1B689B68019308BD9F
:1047EC004002030008B5024B1B68DB68019308BD4F
:1047FC004002030008B5024B1B681B69019308BDFE
:10480C004002030008B5024B1B685B69019308BDAD
:10481C004002030008B5024B1B689B69019308BD5D
:10482C004002030008B5024B1B68DB69019308BD0D
:10483C004002030008B5024B1B681B6A019308BDBC
:10484C004002030008B5024B1B681B6B019308BDAB
:10485C004002030008B5024B1B685B6B019308BD5B
:10486C004002030008B5024B1B68DB68019308BDCE
:10487C004402030008B5024B1B68DB6B019308BDB7
:10488C004402030008B5024B1B681B68019308BD6A
:10489C001C02030008B5024B1B685B68019308BD42
:1048AC001C02030008B5024B1B685B6A019308BD30
:1048BC001C02030008B5024B1B68DB6B019308BD9F
:1048CC001C020300002211464068FFF7B3BF002210
:1048DC0011464068FFF7BEBF00224068FFF7B2BF29
:1048EC00002281F001014068FFF79CBF00231A46AB
:1048FC0019464068FFF78EBF00231A4619464068D8
:10490C00FFF780BF002211464068FFF773BF0022FB
:10491C0011464068FFF75EBF002202214068FFF796
:10492C0061BF00231A464068FFF74CBF024B0322BD
:10493C005A60024A1A607047F8E4032078660D004A
:10494C0010B50446006818B1FFF7A4FF00232360DC
:10495C0010BD10B50446FFF7F3FF204610BD000054
:10496C0010B5094C00204FF6FF732060A080A07199
:10497C0020816381FFF70AFF2046044A0449BDE801
:10498C00104001F0EFBA00BF00E50320D85B032014
:10499C005F490D0010B40468246BA4465DF8044B09
:1049AC00604703689B6C1847808E7047028FC08EDF
:1049BC00101A704713B502AB026803F8011DD468D6
:1049CC0019460122A04702B010BD10B503681B693F
:1049DC000446984728B1E38EE26B591CE186D05C03
:1049EC0010BD4FF0FF3010BD10B503681B690446B5
:1049FC00984718B1E38EE26BD05C10BD4FF0FF30DE
:104A0C0010BD704710B403460846DC6BD98E1A8F64
:104A1C000368521ADB6821445DF8044B1847A0F177
:104A2C001000FFF7EFBFF0B503688DB01C265B6A72
:104A3C0004460F461546984701233246002105A827
:104A4C00029301F0F8FB8DF8146038460A268DF8B5
:104A5C001560FFF7CBFD1122ADF816000221304690
:104A6C00FFF74CFE0028606124DB0422009202ABAD
:104A7C0040F6FF71FFF70AFEE0B995B10390ADF86F
:104A8C00100003A9E8B2FFF739FD98B9062300938B
:104A9C0041F20B0203AB40F6FF716069FFF7F6FDC4
:104AAC0040B91C2205A96069FFF7E8FD10B96564DF
:104ABC00012004E0236820465B6A984700200DB073
:104ACC00F0BD10B504464069002801DBFFF7E6FD98
:104ADC004FF0FF3363610023E386238710BD38B5A5
:104AEC00C36B0546C08E13B12C6C241A00E01C4617
:104AFC00944228BF14462246184401F091FBEB8ED9
:104B0C002344EB86204638BD70B503681B69044608
:104B1C000E461546984788B1236820461B6998476E
:104B2C00E38EE16B8542A8BF054619442A46304600
:104B3C0001F076FBE38E2B44E38601E04FF0FF356A
:104B4C00284670BD70B50446054B44F8043B01F192
:104B5C00200506460FCD0FC42B682370304670BD60
:104B6C0020680D00F0B59446026889B0976A0A4A2D
:104B7C0002921D1D8E4606460FCD03AC0FC42B684A
:104B8C002370BDF838300093624602AB7146304654
:104B9C00B84709B0F0BD00BF20680D00F0B5036840
:104BAC00B0F836E09F6A0D4B89B000F12006044640
:104BBC0002930FCE03AD0FC533682B70A38E0093F9
:104BCC00724602ABE16B2046B84723680546DB69A9
:104BDC0020469847284609B0F0BD00BF20680D005C
:104BEC00F0B54378022B8DB005460C46174601D123
:104BFC00011D33E00A2B35D11122002101A801F04F
:104C0C001AFBAB6843B9EB6833B94FF6FF702E69EA
:104C1C00FFF7DCFC86421FD005F1080301AE05F15D
:104C2C00180E18685968324603C208337345164685
:104C3C00F7D1062301A906A807AE8DF8143000F0B1
:104C4C00ADFB0FCE04340FC43368237057B16888A2
:104C5C00FFF7C4FC388005E005F11401204600F094
:104C6C00DFFBF3E70DB0F0BD2DE9F0418EB00EABDC
:104C7C00002506461746084643F8345D2A46294661
:104C8C00FFF72CFC00281FDB019BFBB15B69EBB130
:104C9C0002A800F075FB019B2A46586902A9FFF790
:104CAC009FFF02A800F08CFB80B1336803ADD3F8F2
:104CBC0038800B4B08930FCD09AC0FC42B682370B5
:104CCC003A4608A93046C047044601E04FF0FF348D
:104CDC000198FFF7FBFB20460EB0BDE8F08100BF4A
:104CEC0020680D002DE9F047D0F81480B8F1000FC2
:104CFC008CB005460C461746994600DB11B94FF0AF
:104D0C00FF3035E04FF01C0A05AE5246002130460C
:104D1C0001F091FACDF808A0B9F1000F14D04FF4BE
:104D2C007A72B9FBF2F1039102FB11914A43082309
:104D3C000492009341F2060203AB40F6FF71404629
:104D4C00FFF7A4FC08B113E0082002AB0193214645
:104D5C00034600963A466869FFF7B8FC041E06DB6A
:104D6C0005F1340205F11C013046FFF739FF2046EE
:104D7C000CB0BDE8F08738B5054614462B7D062BE4
:104D8C00084611D11C2313700A235370FFF72EFC15
:104D9C00083424F8060C2B1D143553F8042B44F856
:104DAC00042BAB42F9D138BD042B0AD1102313705C
:104DBC0002235370FFF71AFC60806868FFF706FC4B
:104DCC00606038BD2DE9F0438BB003AC1C259946CF
:104DDC0006460F46904600212A46204601F02BFA43
:104DEC002246BDF848104846FFF7C5FF9DF80D3028
:104DFC0043B18DE830000023424639467069FFF715
:104E0C0075FC01E04FF0FF300BB0BDE8F083F0B55E
:104E1C0091B00C4606460021154609A81C221F46D7
:104E2C0001F009FA09AA00212046FFF7A4FF9DF81A
:104E3C002530022B2ED1002305930A9B0493DDB160
:104E4C0002A92846FFF762FBB0B910A941F8340D4E
:104E5C000298FFF763FB60B9039B53B1DA681268E1
:104E6C005178022903D152680AB1059201E01B68FE
:104E7C00F3E70398FFF75AFB002F4FF0080300935A
:104E8C0018BF032204AB08BF042200213046FFF7F1
:104E9C00FDFB1EE00A2B1AD104AC14220021204683
:104EAC0001F0C9F90BAB0FCB002F84E80F004FF0CA
:104EBC001403009318BF0C22234608BF0D2229218E
:104ECC0030460895FFF7E2FB00EAE07001E04FF096
:104EDC00FF3011B0F0BD000038B54FF47A73836029
:104EEC000B4B03F108026C33002503614FF0FF33C9
:104EFC0004464560026043611C3000F041FA4FF4F7
:104F0C000073E5862587E56323646564204638BD18
:104F1C00A4660D0010B590F84830044623B1C06B60
:104F2C0010B1012101F023F80023E36384F8483029
:104F3C002364E386238710BD70B5044616460D46E0
:104F4C00FFF7E8FF0023E66323643EB935B128463A
:104F5C00FFF79DF80123E06384F84830E36B03B15D
:104F6C002564206C003018BF012070BDF8B51746C1
:104F7C00C26B05460C461AB9016C09B1FFF7DCFF90
:104F8C0004340FCC05F120060FC6236833700023C0
:104F9C00AF86EB862B87286CF8BD70B5C26B0446C8
:104FAC000E461AB9016C09B1FFF7C6FFE16B00227E
:104FBC00E286228749B1226C3AB1236820461D6BE8
:104FCC003346A8470028C8BF2087236820461B69A2
:104FDC00BDE870401847000010B5074B03F10802FC
:104FEC006C33044602600361FFF76BFD2046FFF74C
:104FFC0091FF204610BD00BFA4660D0010B50446FD
:10500C00FFF7EAFF20464C2100F0B1FF204610BD0F
:10501C0002464069002804DB012392F84420FFF784
:10502C00F6BE4FF0FF30704710B50446006808B16B
:10503C00FFF7BCFA204610BD10B5064C00232046E5
:10504C002360FFF7ABFA2046034A0449BDE8104041
:10505C0000F088BF0CE50320D85B032035500D0011
:10506C00F8B506460D468F180024BD420CD03368A7
:10507C0015F8011B9B6830469847002801DB044457
:10508C00F3E7002C08BF04462046F8BD70B5054672
:10509C000C46084649B101F0FFF82B680246214640
:1050AC002846DB68BDE87040184770BD08B5FFF7AF
:1050BC00EDFF08BD03689B68184738B50D21054600
:1050CC00FFF7F8FF0A2104462846FFF7F3FF2044B8
:1050DC0038BD38B50546FFF7D9FF04462846FFF71B
:1050EC00ECFF204438BD30B58BB00B4600218DF859
:1050FC002410012A98BF0A220DF12304B3FBF2F508
:10510C0005FB123303F0FF03092B94BF3033373305
:10511C00DBB2214604F801392B46002DEED1FFF706
:10512C00B5FF0BB030BD0CB42DE9F04387B000AF28
:10513C0007F13804054654F8049B3C600E462346A0
:10514C004A461421381DFFF7ADFB132805D8391D2D
:10515C002846FFF79BFF044613E000F1080323F0F9
:10516C000703E846ADEB030D411C23464A4668464F
:10517C003C60FFF797FB69462846FFF787FF04461C
:10518C00C5461EB12846FFF798FF044420461C373D
:10519C00BD46BDE8F04302B070470000014B024A27
:1051AC001A60704710E5032087670D00024B1A68E0
:1051BC00024B1A60704700BF705B032014E503209C
:1051CC0010B58368044613B1032201469847204664
:1051DC0010BD10B50446FFF7F3FF204610BD0000CC
:1051EC000348044A04490023836000F0BBBE00BF9F
:1051FC0018E50320D85B0320DF510D0008B50C4BDC
:10520C0033B100F07BF903681B699847002809DC6F
:10521C00084B63B100F0F8F903681B699847002844
:10522C0003DC08BDAFF30080F2E7AFF3008008BDEC
:10523C00000000000000000008B5FFF7DFFFFFF7DB
:10524C008DF9014B186008BD4CE703200248034A56
:10525C000349121A00F0E4BF00F4032004F4032005
:10526C00506A0D0007B5002300931A466FF07701C2
:10527C00FFF79EFA03B05DF804FB000007B5438806
:10528C000A2B08D0502B09D1094B1B683BB103B03A
:10529C005DF804EB1847FFF7E5FF06E000230093E9
:1052AC001A466FF07701FFF783FA03B05DF804FB41
:1052BC0028E5032038B5104C104D2368AB42104B39
:1052CC000CBF012200221A7002D0FFF7BFFF25602D
:1052DC00FFF734F9044600F0B7FF0A4B13B1204630
:1052EC00AFF3008000210748FFF7C4FA00210648FD
:1052FC00BDE83840FFF752BA00F403201E1C279A71
:10530C002CE503200000000089520D00704710B5F9
:10531C001821044600F02BFE204610BDF0B5037D8D
:10532C00062B8DB00E4600F104074FF0000402D09E
:10533C0000F1080518E00CAD394605F8304D2F2367
:10534C002A460A20FFF73AF9284600F0A5FF3368F1
:10535C000246DB682946304698470FE024B12E21DF
:10536C003046FFF7A7FE044415F8011D0A2230460B
:10537C00FFF7B9FEBD420444F0D120460DB0F0BD9C
:10538C0010B5054B0446112240F8043B002100F0F7
:10539C0052FF204610BD00BF20680D000346074A8F
:1053AC0010B543F8042B01F1100251F8044B43F8EB
:1053BC00044B9142F9D10A781A7010BD20680D0087
:1053CC00037D042B01D1406808E0062B0AD1436809
:1053DC0053B9836843B9C36833B90069003018BF47
:1053EC0001207047002070470120704710B59DF8D0
:1053FC00084044EA032343EA024242EA01610423DF
:10540C004160037510BD000037B5044D05609DF873
:10541C0018500095FFF7EAFF03B030BD20680D006F
:10542C0037B50D788B784A78C97800912946FFF703
:10543C00DDFF03B030BD41747047704708B50021E3
:10544C00007CFFF783F930EA200028BF4FF0FF30D3
:10545C0008BD08B50121007CFFF778F930EA20007F
:10546C0028BF4FF0FF3008BD08B5007CFFF766F988
:10547C0020EAE07008BD08B5007CFFF757F920EA78
:10548C00E07008BD007CFFF771B910B5142104461B
:10549C0000F06DFD204610BD38B50446007C0D466D
:1054AC00FFF74CF9002801DC607C28B12946207CF0
:1054BC00FFF754F920EAE07038BD000010B504463F
:1054CC00002363604FF47A73A360054B23600123C0
:1054DC000846217463741146FFF718F9204610BD75
:1054EC0034680D000022007CFFF718B910B51422A7
:1054FC000446002100F09FFE204610BD30B50E4D35
:10550C0087B001A8FFF7F2FF296811F0010410D150
:10551C002846FEF7C2FD60B101AA21460748FFF7F5
:10552C00CDFF2846FEF7BEFD054A0649034800F0AC
:10553C0019FD024807B030BD30E5032034E50320E7
:10554C00D85B032047540D0070474174704708B571
:10555C00007CFFF783F820EAE07008BD08B5007CFA
:10556C00FFF75CF820EAE07008BD08B5007CFFF797
:10557C0065F830EA200028BF4FF0FF3008BD08B5B1
:10558C00007CFFF753F830EA200028BF4FF0FF30C3
:10559C0008BD007CFFF75AB810B51421044600F082
:1055AC00E6FC204610BD70B5457C04460E4625B978
:1055BC00007CFFF753F8002805DD3146207CBDE860
:1055CC007040FFF723B8284670BD000010B50446A4
:1055DC0008461146002262604FF47A72A260054AB6
:1055EC0022600122207462741A46FFF707F82046E5
:1055FC0010BD00BF64680D000023007CFFF736B8B7
:10560C000022FFF7F9BF0000F8B5194C25684DB919
:10561C008420FEF73AFD064618B18422294600F094
:10562C000AFE2660134D2E684EB98420FEF72DFD20
:10563C00074618B18422314600F0FDFD2F600E4F55
:10564C00396811F0010611D13846FEF726FD68B114
:10565C0022682B6809483146FFF7B8FF3846FEF739
:10566C0021FD074A0749054800F07CFC0348F8BDBA
:10567C0064E503205CE5032060E5032048E5032096
:10568C00D85B032055550D00002211464068FFF7EA
:10569C00D1B8002211464068FFF7DCB80022406800
:1056AC00FFF7D0B8002281F001014068FFF7BAB8CB
:1056BC0000231A4601214068FFF7ACB800231A46B4
:1056CC0019464068FFF79EB8002211464068FFF764
:1056DC0091B8002211464068FFF77CB800220221E5
:1056EC004068FFF77FB800231A464068FFF76AB896
:1056FC0038B5054688B104684CB1A3681BB10322C8
:10570C002146204698471021204600F030FC2846C0
:10571C001421BDE8384000F02ABC38BD10B1036834
:10572C005B681847704710B503680446BBB15868EE
:10573C00FEF71CFF78B923685A7C12B95868FEF73B
:10574C001DFF23685868FEF721FF206800232360A3
:10575C0028B1FFF7CDFF206808B1FFF7C9FF20463D
:10576C0010BD38B50446D0F8C40108B1FEF793FC5F
:10577C00D4F8C00108B1FEF719FFD4F8BC5135B10B
:10578C002846FFF7D0FF0421284600F0F0FB2068E4
:10579C0008B1FFF7C3FF204638BD000010B5044B1D
:1057AC00044640F8083BFFF7DCFF204610BD00BF65
:1057BC0094680D0038B50E4C0E4B23600025022367
:1057CC0004F5E4706360A560C4F8C451C4F8C85112
:1057DC00FEF7E4FE084BC4F8CC5184F8D05123609A
:1057EC002046064A0649BDE8384000F0BBBB00BF66
:1057FC0068E503207C690D0094680D00D85B0320DC
:10580C00A9570D0037B502AC036804F8011DDD6B18
:10581C0001224FF0FF332146A84703B030BD10B42E
:10582C000368DC6B4FF0FF33A4465DF8044B604714
:10583C0037B502AC036804F8011DDD6B2146134635
:10584C000122A84703B030BD704738B543691A68C8
:10585C00002A044605DAB3F80624B3F804349A4255
:10586C0001D001250BE003681B699847002814BF81
:10587C000125002503D123682046DB6A984728467A
:10588C0038BD43691868C043C00F7047704700208B
:10589C00704710B51421044600F069FB204610BD7A
:1058AC00FEF7F7BB7FB516460022426002920392C8
:1058BC005A1C04460D4608D04FF47A72B3FBF2F131
:1058CC00029102FB11314A43039260690823009351
:1058DC0041F205026B4440F6FF710068FEF7D6FEFC
:1058EC00002808DB60690023324629460068FEF771
:1058FC00F5FE002804DAFEF7DDFF03686360002084
:10590C0004B070BD10B5036804469B689847A36843
:10591C00013BA3602BB923682046DB68BDE810402F
:10592C00184710BD70B504464D69064B44F8043B4E
:10593C0005F20C4506460FCD0FC42B68237030467C
:10594C0070BD00BF20680D0010B54369B3F8062484
:10595C00B3F804349A42044605D06269B2F80434B0
:10596C001344187910BD03681B6998470028F4D1BB
:10597C004FF0FF3010BD10B54369B3F80624B3F8EF
:10598C0004349A42044608D06269B2F80434591CB3
:10599C001344A2F80414187910BD03681B699847C6
:1059AC000028F1D14FF0FF3010BDF8B54369174610
:1059BC00B3F80624B3F804349A4205460E4606D1D1
:1059CC0003681B69984710B94FF0FF3414E06969FC
:1059DC00B1F80434B1F80644E41ABC4228BF3C4682
:1059EC00194422460431304600F01AFC6A69B2F8B8
:1059FC0004342344A2F804342046F8BD2DE9F043C6
:105A0C009846036893B0DB6A0D46064617469847DE
:105A1C0012AB002443F8484D224621462846FEF797
:105A2C005DFD814600283DD1009B002B56D05B6963
:105A3C00002B53D006A8FFF7A3FC009B5C6963788E
:105A4C00022B01D1211D13E00A2B14D1112249463E
:105A5C0001A800F0F0FBA36833BBE36823BB4FF64F
:105A6C00FF702569FEF7B2FD85421DD104F11401CA
:105A7C0006A8FFF7D5FC06A8FFF7A2FC00282DD03E
:105A8C00336807ADD3F82090184B0C930FCD0DACA9
:105A9C000FC42B6823703A4643460CA93046C847BE
:105AAC0081461BE0A14619E004F1080301AD18344E
:105ABC00186859682A4603C20833A3421546F7D121
:105ACC00062301A90CA80DAD8DF81430FFF766FC68
:105ADC000FCD07AC0FC42B682370CCE70098FEF7F2
:105AEC00F5FC484613B0BDE8F08300BF20680D00FC
:105AFC0042690023A2F804344269A2F806347047C4
:105B0C002DE9F0411E4603680C468AB0DB6A054657
:105B1C0017469847237DD5F81480042B0CBF022020
:105B2C000A2006220121FEF7E9FDC8F800006B6986
:105B3C001B68002B18DB2846FFF7DAFFD6B10023D1
:105B4C0003A9F0B20393ADF81030FEF7D7FC58B9A7
:105B5C0068690623009341F20B0203AB40F6FF7118
:105B6C000068FEF793FD28B12B682846DB6A0024F9
:105B7C0098473CE01C263246002103A800F05BFB52
:105B8C00237D8DF80C60042B0CD1022338468DF844
:105B9C000D30FEF72BFDADF80E006068FEF716FD1C
:105BAC00049013E00A2338468DF80D30FEF71EFDE5
:105BBC0005AEADF80E00231D04F1140718685968E2
:105BCC00324603C20833BB421646F7D16B691C221E
:105BDC0003A91868FEF76AFD0028C5D104340FCC60
:105BEC006D6905F20C450FC523682B700124204606
:105BFC000AB0BDE8F08110B5436904461868002866
:105C0C0001DBFEF74BFD63694FF0FF321A606069F0
:105C1C001122002100F20C4000F00DFB2046BDE8E3
:105C2C001040FFF765BF000030B54269B2F806348A
:105C3C008BB004461BB1B2F804249A4241D063697C
:105C4C001868002840DBB3F80654B5F5806F3BD2DA
:105C5C00191DC5F5806208232944FEF72FFD002885
:105C6C000CDD6369B3F806240AB9A3F8042462694D
:105C7C00B2F806341844A2F8060425E0FEF71AFE22
:105C8C0003680B2B20D0FEF715FE03680B2B1BD0E3
:105C9C002023002502930395FEF70CFE0368019365
:105CAC000D4B009302AA2B460C493220FEF766FDE1
:105CBC0063691868FEF7F2FC63694FF0FF321A60F3
:105CCC0002E0FFF715FFBAE76269B2F80634B2F8E2
:105CDC000404181A0BB030BD2F690D0028690D0093
:105CEC0010B5002304460160A0F80434A0F8063473
:105CFC0000F58160FFF744FB204610BD4FF47A722B
:105D0C0070B500238260154A436002604361836171
:105D1C0004464FF484600E46FEF7B7F9054610B101
:105D2C003146FFF7DDFF1420FEF7AFF9034628B12B
:105D3C000122426082600A4A02600561A0696561C5
:105D4C00A36128B14368013B43600BB9FFF7DAFD4F
:105D5C002046FFF7CDFE204670BD00BFE4680D0065
:105D6C00C8680D0010B54FF0FF310446FFF7C6FFB1
:105D7C00204610BD10B504460068002801DBFEF774
:105D8C008DFC204610BD10B504692046FFF7F2FFCC
:105D9C0024B12046BDE81040FEF77BB910BD0022AF
:105DAC0011464068FEF726BD002211464068FEF7FA
:105DBC0041BD002211464068FEF74CBD00224068F0
:105DCC00FEF740BD002281F001014068FEF72ABDBC
:105DDC0000231A4619464068FEF71CBD00231A46DC
:105DEC0019464068FEF70EBD002211464068FEF7CA
:105DFC00F1BC002202214068FEF7F4BC00231A46D5
:105E0C004068FEF7DFBC0000024B04225A60024AD5
:105E1C001A6070473CE7032048690D0000231A46BE
:105E2C004068FEF7CFBC002202214068FEF7DABCC6
:105E3C00002211464068FEF7CDBC00221146406896
:105E4C00FEF7D8BC00231A4619464068FEF7DABCA8
:105E5C0000231A4619464068FEF7DCBC002281F08C
:105E6C0001014068FEF7DEBC00224068FEF7EABC88
:105E7C00002211464068FEF7EDBC00221146406836
:105E8C00FEF7D8BC2DE9F043002495B016460D461C
:105E9C000746FFF775FA214620220CA8009400F063
:105EAC00CAF940230C9321466B460CAA3046FEF7E8
:105EBC0015FB0446002844D1024601216868FEF710
:105ECC0099FC0221804622466868FEF793FC009EEE
:105EDC0081462146002E34D0002932D17368022B22
:105EEC0002D00A2B09D02AE0B8F1000F27D0716933
:105EFC0038460431FFF794FA20E0B9F1000F1ED0B8
:105F0C007469112201A800F096F906238DF814305B
:105F1C0001AD04F108031834186859682A4603C205
:105F2C000833A3421546F7D101A906A807ADFFF720
:105F3C0035FA0FCD3C1D0FC42B6823700121F66977
:105F4C00C8E70098FEF7C2FA384615B0BDE8F083F2
:105F5C00024B034A1A6000225A60704744E7032040
:105F6C007C690D000B460146184600F04BB9FEF754
:105F7C0090B80000184B1A68D1075CBF01221A6058
:105F8C00164B1A68D2075CBF01221A60144B1A68B0
:105F9C00D0075CBF01221A60124B1A68D1075CBF94
:105FAC0001221A60104B1A68D2075CBF01221A60DA
:105FBC000E4B1A68D0075CBF01221A600C4B1A6892
:105FCC00D1075CBF01221A600A4B1A68D2075CBF6A
:105FDC0001221A60704700BF6CE7032068E70320BA
:105FEC0064E7032060E703205CE7032058E7032005
:105FFC0054E7032050E70320244B1A68D0075CBFFA
:10600C0001221A60224B1A68D1075CBF01221A6068
:10601C00204B1A68D2075CBF01221A601E4B1A680B
:10602C00D0075CBF01221A601C4B1A68D1075CBFF9
:10603C0001221A601A4B1A68D2075CBF01221A603F
:10604C00184B1A68D0075CBF01221A60164B1A68ED
:10605C00D1075CBF01221A60144B1A68D2075CBFCF
:10606C0001221A60124B1A68D0075CBF01221A6019
:10607C00104B1A68D1075CBF01221A600E4B1A68CC
:10608C00D2075CBF01221A60704700BF9CE7032057
:10609C0098E7032094E7032090E703208CE7032084
:1060AC0088E7032084E7032080E703207CE70320B4
:1060BC0078E7032074E7032070E70320244B1A6869
:1060CC00D0075CBF01221A60224B1A68D1075CBF53
:1060DC0001221A60204B1A68D2075CBF01221A6099
:1060EC001E4B1A68D0075CBF01221A601C4B1A6841
:1060FC00D1075CBF01221A601A4B1A68D2075CBF29
:10610C0001221A60184B1A68D0075CBF01221A6072
:10611C00164B1A68D1075CBF01221A60144B1A681F
:10612C00D2075CBF01221A60124B1A68D0075CBF01
:10613C0001221A60104B1A68D1075CBF01221A6049
:10614C000E4B1A68D2075CBF01221A60704700BF61
:10615C00CCE70320C8E70320C4E70320C0E70320F3
:10616C00BCE70320B8E70320B4E70320B0E7032023
:10617C00ACE70320A8E70320A4E70320A0E7032053
:10618C00184B1A68D1075CBF01221A60164B1A68AB
:10619C00D2075CBF01221A60144B1A68D0075CBF8F
:1061AC0001221A60124B1A68D1075CBF01221A60D7
:1061BC00104B1A68D2075CBF01221A600E4B1A688A
:1061CC00D0075CBF01221A600C4B1A68D1075CBF68
:1061DC0001221A600A4B1A68D2075CBF01221A60AE
:1061EC00704700BFECE70320E8E70320E4E7032057
:1061FC00E0E70320DCE70320D8E70320D4E7032003
:10620C00D0E7032010B5054C13462CB10A460146C5
:10621C000220AFF3008010BD204610BD000000002E
:10622C0010B5431E0A44914204D011F8014B03F8F7
:10623C00014FF8E710BD02440346934202D003F825
:10624C00011BFAE77047000038B5124B1C68A36BB2
:10625C000546D3B91820FEF715FB43F20E33A063A5
:10626C0003804AF6CD33438041F2342383804EF2CF
:10627C006D63C3804DF6EC630381052343810B23CF
:10628C00838101220023C0E90423A36B00221D613A
:10629C005A6138BDD45B0320034613F8012B002A46
:1062AC00FBD1181A013870471D400D0059400D00E4
:1062BC0085400D0089400D00000000005544502021
:1062CC005061636B65742053697A653A20256900C7
:1062DC004572726F72207768696C652072656164B3
:1062EC00696E6720554450207061636B65742E0095
:1062FC00434C49454E542053544154453A20456E25
:10630C00746572696E6720444953434F5645524930
:10631C004E472073746174652E00434C49454E54AE
:10632C002053544154453A20456E746572696E672A
:10633C0020434F4E4E454354494E4720737461746D
:10634C00652E00434C49454E542053544154453A14
:10635C0020456E746572696E6720434F4E4E4543FF
:10636C005445442073746174652E0053656E6469E2
:10637C006E6720646973636F7665727920706163F0
:10638C006B65742E0052455100417474656D7074C8
:10639C00696E672054435020636F6E6E6563746939
:1063AC006F6E2077697468207365727665722E2E15
:1063BC002E0054435020736F636B657420697320F7
:1063CC006F70656E2C20636F6E6E656374656420F0
:1063DC00746F207365727665722E004661696C6508
:1063EC006420746F20636F6E6E656374202F206F52
:1063FC0070656E2054435020736F636B65742E0070
:10640C005265646973636F766572696E6720736534
:10641C00727665722E2E2E0054435020536F636B90
:10642C00657420697320646973636F6E6E65637441
:10643C0065642C207265646973636F766572696E2E
:10644C0067207365727665722E2E2E00417665720A
:10645C00616765206D6963726F7365637320626534
:10646C00747765656E20736C6176652073657269EF
:10647C00616C207772697465733A202569007665C2
:10648C0063746F723A3A5F4D5F656D706C616365F2
:10649C005F6261636B5F6175780055445020506199
:1064AC00636B65742072656365697665642E2E2E48
:1064BC0000466F756E64207061636B65742068654F
:1064CC00616465723A200041434B00446973636F09
:1064DC00766572792061636B6E6F776C65676D653D
:1064EC006E74207061636B657420666F756E642CBE
:1064FC002072656164696E67207061636B657420DE
:10650C00696E666F2E00506F6F726C7920666F72B9
:10651C006D6564206164647265737320696E2064B8
:10652C006973636F766572792041434B20706163A8
:10653C006B65742E00506F6F726C7920666F726D84
:10654C00656420706F727420696E20646973636F68
:10655C00766572792041434B207061636B65742EB4
:10656C0000446973636F7665726564202D205365F2
:10657C00727665722049503A20002C20706F72742C
:10658C003A2000506F6F726C7920666F726D656483
:10659C002073657276657220706F727420696E203C
:1065AC00646973636F766572792041434B20706127
:1065BC00636B65742E00446973636F766572792022
:1065CC007061636B657420616464726573732F70A2
:1065DC006F7274206D69736D617463682E00446909
:1065EC0073636F76657279207061636B6574206478
:1065FC006964206E6F7420686176652041434B207E
:10660C006865616465722E0057616974696E6720F4
:10661C00746F20626520646973636F76657265645C
:10662C002E2E2E00506F6F726C7920666F726D6516
:10663C006420646973636F766572792041434B20E3
:10664C007061636B65742E005061636B65742072AE
:10665C0065636965766564206F6E206D6173746522
:10666C00722E000000000000000000002F490D00F9
:10667C0025490D001B490D0011490D0005490D0060
:10668C00F9480D00ED480D00E5480D00DB480D0004
:10669C00D1480D00915E0D000000000000000000CC
:1066AC00E54F0D0009500D00C1490D00EB4A0D00DE
:1066BC00B9490D00D7490D00F5490D000F4A0D00E1
:1066CC00334A0D00CF4A0D00D14D0D00714B0D001A
:1066DC00F14C0D00A1490D00794F0D00754C0D00CA
:1066EC00A94B0D00A74F0D00154B0D00AF490D0028
:1066FC00514B0D00B5490D00114A0D00F0FFFFFF85
:10670C00000000002B4A0D00626175640053657235
:10671C0069616C0053657269616C310074797065E4
:10672C0000706172616D00636D6400696400686E75
:10673C0064007374726D0066696C74006C766C0026
:10674C0061646448616E646C65720072656D6F762D
:10675C006548616E646C657200656E756D48616E3E
:10676C00646C657273004A534F4E53747265616D5D
:10677C004C6F6748616E646C6572006170700025C7
:10678C003031307520005D20002C200028293A2063
:10679C0000205B00636F6465203D200064657461BC
:1067AC00696C73203D20000D0A0066006C6E00665B
:1067BC006E00636F64650064657461696C006E6F74
:1067CC006E6500747261636500696E666F00776157
:1067DC00726E006572726F720070616E6963006137
:1067EC006C6C005A00252B3033643A25303275001E
:1067FC0025592D256D2D25645425483A254D3A25CE
:10680C0053257A0061736374696D650000000000A4
:10681C000000000029530D0019530D001B530D00EF
:10682C00000000000000000047540D0097540D00BC
:10683C00A5540D006D500D0083540D0049540D00EE
:10684C005F540D0091540D0075540D0043540D0010
:10685C00000000000000000055550D00A5550D006E
:10686C00B3550D006D500D0069550D008B550D0085
:10687C0077550D009F550D0057550D005B550D00BC
:10688C000000000000000000F3560D00E9560D005A
:10689C00DF560D00D5560D00C9560D00BD560D0026
:1068AC00B1560D00A9560D009F560D0095560D00C2
:1068BC00915E0D00000000000000000099580D00D2
:1068CC009F580D00935D0D00AD580D009B580D00A9
:1068DC000000000000000000ED400D0021410D0003
:1068EC0011580D002B580D00355C0D0083590D000F
:1068FC0055590D0055580D000D5B0D00095A0D0032
:10690C00B7590D00035C0D0057580D008F580D0042
:10691C003D580D00B1580D0031590D007769726961
:10692C006E670072656376206572726F72203D200F
:10693C00256400000000000000000000095E0D004E
:10694C00FF5D0D00F55D0D00AB5D0D00E95D0D000B
:10695C00DD5D0D00D15D0D00C95D0D00BF5D0D004D
:10696C00B55D0D00915E0D00000000000000000000
:10697C00295E0D00335E0D003D5E0D00475E0D007F
:10698C00515E0D005D5E0D00695E0D00755E0D00C3
:10699C007D5E0D00875E0D00915E0D000000000015
:1069AC0000000000000000000000000000000000DB
:1069BC0000000000000000000000000000000000CB
:1069CC0000000000000000000000000000000000BB
:1069DC0000000000000000000000000000000000AB
:1069EC00000000000000000000000000000000009B
:1069FC000000000000000000000000004300000048
:106A0C0049420D0059440D0039490D006D490D00E6
:106A1C0045500D00A9510D00B9510D00ED510D005F
:106A2C00C1570D00155E0D005D5F0D00815F0D00FF
:106A3C0005600D00C9600D008D610D0000000000A7
:046A4C000000000046
:046A50000000000042
:106A540010680D0000000000A8690D00C8690D0051
:106A6400E8690D00000000000000000000000000C4
:106A740000000000086A0D00000000000000000093
:106A84000000000000000000000000000000000002
:106A940000000000000000000000000000000000F2
:106AA40000000000000000000000000000000000E2
:086AB40000000000745B0320E8
:106ABC00FFFFFFFF00000102030405060708090A97
:106ACC000B0C0D0E0F101112131415161718191A92
:086ADC001B1C1D1E1F202800D9
:046AE400785634129A
:04000003D000401CCD
:00000001FF
